:020000040800F2
:10000000000D00202D0200086D0300086F0300089A
:1000100073030008770300087B030008000000005A
:100020000000000000000000000000007F03000846
:100030008103000800000000830300080914000881
:10004000470200084702000847020008470200086C
:10005000470200084702000847020008470200085C
:10006000470200084702000847020008E91000089C
:10007000470200084702000847020008CD0C0008AC
:10008000DB0C00084702000847020008470200088E
:10009000470200084702000847020008F51200085E
:1000A000470200084702000847020008470200080C
:1000B00047020008470200084702000847020008FC
:1000C00047020008470200084702000847020008EC
:1000D00047020008B90C0008C30C000847020008DA
:1000E00085030008470200084702000800F002F8F4
:1000F00000F08DF80AA090E8000C82448344AAF135
:100100000107DA4501D100F082F8AFF2090EBAE832
:100110000F0013F0010F18BFFB1A43F0010318473B
:10012000083B0000283B0000103A24BF78C878C183
:10013000FAD8520724BF30C830C144BF04680C60ED
:10014000704700000023002400250026103A28BF35
:1001500078C1FBD8520728BF30C148BF0B60704739
:100160006E2902F0B986702903F002806629AFF388
:1001700000806529AFF300806729AFF30080612913
:10018000AFF3008003681B0A28BF41F08001692992
:1001900002F06686642902F06386752902F06086A3
:1001A0006F2902F08D87782902F0CE87E92902F0C5
:1001B0002587E42902F02287F52902F01F87EF291D
:1001C00002F08A87F82902F0CD870368DB0928BF8F
:1001D00041F08001632903F04881732903F04D81C8
:1001E000E32903F05881F32903F05D810020704773
:1001F0001FB503F0EFFC03F0B1F90400002000216B
:1002000003F0FCF9401C60601FBD10B510BD03F089
:100210006EF91146FFF7ECFF00F028F803F094F9AF
:1002200003B4FFF7F2FF03BC01F0D6F8094880479A
:1002300009480047FEE7FEE7FEE7FEE7FEE7FEE7C8
:10024000FEE7FEE7FEE7FEE704480549054A064BE0
:100250007047000055040008ED000008000700206A
:10026000000D0020000900200009002000F0F2F835
:100270003A4800684FF4FA72B0FBF2F1B1F1807FB6
:1002800001D301201DE021F07F40401E4FF0E0220D
:10029000506150170F22002807DA13071D0E304B4C
:1002A00000F00F04241F1D5503E013071C0E2D4BF7
:1002B0001C5400BF00204FF0E02290610720106125
:1002C000002008B100BFFEE701F052F801F018F875
:1002D00000F046FD00F0BFFD00F03EFF4FF47A70E5
:1002E00001F07CF800F0E5F9012001F07FF833E03F
:1002F0001D48007818B1002001F07FF830B901F0F6
:10030000C4FB19490870642001F077F801F02CFB58
:1003100020B115480078401E1349087000BFA02086
:1003200000F0B2F910F0100FF9D100F06CFA01F002
:1003300087F801F09FF801F0C6F801F0EDF801F040
:10034000F9F801F0C5FA01F0D6F901F00EF900F064
:100350006DFA012001F04AF8CAE70000040000200D
:1003600018ED00E000E400E000000020704700BF4E
:10037000FEE700BFFEE700BFFEE700BFFEE77047F5
:100380007047704710B54FF4805001F0A4FF10BDC6
:1003900000210020664A126842F48032644B1A60E1
:1003A00000BF634A126802F40030491C10B9B1F56D
:1003B000A06FF6D15E4A126812F4003F01D001200E
:1003C00000E00020012840D15A4A126842F0100291
:1003D000584B1A601A46126822F003021A601A4635
:1003E000126842F001021A60514A5268504B5A603A
:1003F0001A4652685A601A4652685A601A4652683B
:1004000022F47C125A601A46526842F4F8125A607A
:100410001A46126842F080721A6000BF444A12689D
:1004200012F0007FFAD0424A526822F00302404B99
:100430005A601A46526842F002025A6000BF3C4AB3
:10044000526802F00C02082AF9D1704710B5FFF784
:100450009FFF10BD10B53648006840F001003449D8
:1004600008600846406834490840314948600846F9
:100470000068324908402E4908600846006820F4A8
:10048000802008600846406820F4FE0048604FF471
:100490001F008860FFF7DAFF4FF00060284908600E
:1004A00010BD10B5002100200022214B5B6803F035
:1004B0000C0121B1042906D0082928D107E0214BDD
:1004C000214C236027E0214B1F4C236023E0184B75
:1004D0005B6803F47010164B5B6803F480320223F0
:1004E00003EB904022B91A4B4343174C23600DE0B5
:1004F0000F4B5B6813F4003F04D0124B4343124C84
:10050000236003E0114B43430F4C236003E00D4B8A
:100510000D4C236000BF00BF054B5B68C3F30313A2
:100520000C4CE15C084B1B68CB40074C236010BDB2
:1005300000100240002002400000FFF8FFFFF6FE1E
:1005400008ED00E000127A00040000200024F4000E
:1005500000093D000800002010B50121082001F02D
:10056000CBFD0121880301F0D4FD4FF46040F9492F
:1005700008801820C87003208870F74801F008FB35
:100580001020F449C87000020880F34801F000FB15
:1005900010BD10B54FF48051EF4801F0A4FB0020CE
:1005A000EE4908804FF4827048800820888100203E
:1005B0000881C8804FF40070488100208880C8817D
:1005C00007200882E64801F023FF0121E44801F0FA
:1005D000C2FF10BD10B5044600BF0221E04802F082
:1005E00043F80028F9D02146DD4801F0EAFF00BFBA
:1005F0000121DB4802F038F80028F9D0D84801F092
:10060000E2FFC4B2204610BD10B5002400BF022195
:10061000D34802F029F80028F9D02146D04801F04B
:10062000D0FF00BF0121CE4802F01EF80028F9D00B
:10063000CB4801F0C8FFC4B2204610BD642001E0E1
:10064000411EC8B20028FBD1704700B50246002306
:1006500000BF02E0FFF7F2FF5B1C9342FAD300BD3C
:1006600070B505460C464FF48051BB4801F03DFB88
:100670002846FFF7AFFF2046FFF7ACFF4FF480514D
:10068000B54801F030FB70BD70B5044600254FF44D
:100690008051B14801F029FB2046FFF79BFFFFF78F
:1006A000B3FF05464FF48051AB4801F01CFB2846D0
:1006B00070BD10B5FFF750FFFFF76BFF0021084634
:1006C000FFF7CEFF4FF47A70FFF7BFFFA020FFF7D0
:1006D000DBFF00F00100002141EA801421460020E8
:1006E000FFF7BEFF04210846FFF7BAFF4FF47A7008
:1006F000FFF7ABFF40210420FFF7B2FF4FF47A7001
:10070000FFF7A3FFA020FFF7BFFF00F001000821C3
:1007100041EA801421460020FFF7A2FF4FF47A70CF
:10072000FFF793FF00210120FFF79AFF4FF47A7043
:10073000FFF78BFF38210220FFF792FF4FF47A700A
:10074000FFF783FFEC20FFF79FFF40F010042146E6
:100750006C20FFF785FF2D210C20FFF781FF10BDD6
:1007600070B504460D46210A0520FFF779FFE1B276
:100770000620FFF775FF29460720FFF771FF70BDC0
:1007800070B504460D46022040EA14210520FFF70B
:1007900067FFE1B20620FFF763FF29460720FFF756
:1007A0005FFF70BD2DE9F04104460D461646002757
:1007B000C5EB051004EB400731463846FFF7D0FF84
:1007C000BDE8F0812DE9F04104460D4616460027AC
:1007D000C5EB051004EB400731463846FFF7D0FF64
:1007E000BDE8F08170B50025002400BF07E0284671
:1007F0006A1C95B20021FFF7B3FF601C84B2B4F508
:10080000F07FF4DB70BD10B500240BE05548005DAF
:1008100030B10020534A105501462046FFF7A0FF93
:10082000601C84B2B4F5F07FF0DB10BD10B500247D
:1008300009E04C48005D20B14A48015D2046FFF7C1
:100840008FFF601C84B2B4F5F07FF2DB10BD70B591
:1008500005460C46202C01D1002452E0302C05DD49
:10086000392C03DCA4F13000C4B24AE0302C01D1B1
:100870000A2446E0412C05DB5A2C03DCA4F13600A7
:10088000C4B23EE0612C05DB7A2C03DCA4F13C0011
:10089000C4B236E0282C01D13F2432E0292C01D10A
:1008A00040242EE02E2C01D141242AE03F2C01D1FE
:1008B000422426E03B2C01D1432422E03A2C01D1F2
:1008C00044241EE02C2C01D145241AE0272C01D110
:1008D000462416E02F2C01D1472412E0222C01D10E
:1008E00048240EE02D2C01D149240AE03C2C01D1F2
:1008F0004A2406E03E2C01D14B2402E0402C00D1DA
:100900004C2421462846FFF72BFF70BD70B50446E6
:100910000D4616462146621CD4B2C5EB051201EB0A
:1009200042003146FFF793FF70BD70B505460E4695
:1009300014460AE02A466B1CDDB2C6EB061302EB36
:1009400043002178FFF783FF641C20780028F1D151
:1009500070BD000018000020000C01408C00002039
:10096000003800409E00002070B505460C4606E0A9
:1009700014F8011B28466B1C9DB2FFF7F1FE20788E
:100980000028F5D170BD70B505460E4600242946F5
:100990000920FFF765FE00BF09E021460A20FFF7A6
:1009A0005FFE315D0B20FFF75BFE601CC4B2362C8E
:1009B000F3DBA0210820FFF753FE00BFA020FFF7C4
:1009C00063FE10F0200FF9D170BD2DE9F04105460E
:1009D0000E468020FFF758FE074627F0080100204A
:1009E000FFF73EFE00BFA020FFF74EFE10F0200FE5
:1009F000F9D129460920FFF733FE50210820FFF7DF
:100A00002FFE00BFA020FFF73FFE10F0200FF9D10E
:100A1000002409E021460A20FFF722FEC020FFF74C
:100A200033FE3055601CC4B2402CF3DB47F00801A4
:100A30000020FFF715FEBDE8F08110B5A020FFF7FC
:100A400023FE00F0030010BD70B504464CB1EC204D
:100A5000FFF71AFE40F0400529460020FFF700FE90
:100A600008E0EC20FFF710FE20F0400529460020AA
:100A7000FFF7F6FD70BD10B5002400BF06E0E2B23E
:100A80000121E0B2FFF78EFE601C84B2192CF6DB68
:100A9000192408E0A4F11901C8B2E2B20221FFF75B
:100AA00081FE601C84B2322CF4DB322408E0A4F115
:100AB0003201C8B2E2B20321FFF774FE601C84B2B7
:100AC0004B2CF4DB4B2408E0A4F14B01C8B2E2B29A
:100AD0000421FFF767FE601C84B2642CF4DB6424FD
:100AE00008E0A4F16401C8B2E2B20521FFF75AFEA2
:100AF000601C84B27D2CF4DB7D2408E0A4F17D0130
:100B0000C8B2E2B20621FFF74DFE601C84B2962CFB
:100B1000F4DB962408E0A4F19601C8B2E2B2072102
:100B2000FFF740FE601C84B2AF2CF4DBAF2408E07A
:100B3000A4F1AF01C8B2E2B20821FFF733FE601C96
:100B400084B2C82CF4DBC82408E0A4F1C801C8B200
:100B5000E2B20921FFF726FE601C84B2E12CF4DB2F
:100B6000E12408E0A4F1E101C8B2E2B20A21FFF7F2
:100B700019FE601C84B2FA2CF4DBFA2407E0A11DF4
:100B8000C8B2E2B20B21FFF70DFE601C84B2FF2C4D
:100B9000F5DD10BD10B5002807DA0A07140EF84A73
:100BA00000F00F031B1FD45403E00A07130EF54A8D
:100BB000135410BD70B5F44C54F83040248814F030
:100BC000800F35D0F04C54F83040A48914F0800FD9
:100BD0002ED0EE4C54F82040ED4D55F82050AC424C
:100BE0000AD1E94C54F83040A48924F08004E64D41
:100BF00055F83050AC811BE0E54D55F82040651CA0
:100C0000E34E46F820502578DF4E56F83060B58028
:100C1000DF4C54F82050DF4C04EB002404F58074C2
:100C2000A54205D1DB4C04EB0024D94D45F820400A
:100C3000D94C04EB0024D44D05EBC0056D686D68FC
:100C4000C5F580756119D54C54F820408C4204D804
:100C5000D24C54F820400A1B05E0D04C54F82040F8
:100C6000641AC4F58072002A25DDCC4C54F820406B
:100C7000CB4D55F82050AC4209D3C84C54F8204015
:100C8000C74D55F82050641BC4F1FF0307E0C44C66
:100C900054F82040C14D55F82050641B631E934208
:100CA00006DABE4C54F82040641CBD4D45F8204087
:100CB000BA4C44F8201070BD00B50020FFF77AFF51
:100CC00000BD00B50120FFF775FF00BDB5484068C5
:100CD00040F48030B34948607047B248406840F4FF
:100CE0008010B0494860704710B5AF48406900F0C7
:100CF0000100012805D0AC48406940F00100AA4934
:100D00004861AA48A7490866A34848668815C86587
:100D1000A32088650F2000F0CFF90B210F20FFF7EB
:100D200039FF10BD10B5A048406900F0010001284E
:100D300005D09D48406940F001009B4948619C48AE
:100D4000984948679B48886788150867A320C86644
:100D5000102000F0B1F90B211020FFF71BFF10BD90
:100D600070B58D488E4908608C490860894888496B
:100D70000860864908608C48806940F480408A4950
:100D800088610846806940F00100886108468069F2
:100D900040F0040088618848006820F030008649EF
:100DA00008600846006820F0C00008600846006837
:100DB00020F4407008600846006820F44060086035
:100DC0000846006840F0200008600846006840F0CF
:100DD000800008600846006840F48060086077483A
:100DE000006800EBC00101EB001040004FF4E1216E
:100DF000B0FBF1F56420B5FBF0F00401200964219B
:100E000001FB1056322101EB06106421B0FBF1F01A
:100E100000F00F0004436549091D0C80081D00887F
:100E200042F22C0108436149083108805F481030C4
:100E3000008840F040005D491031088000205B4987
:100E40000880252000F038F90C212520FFF7A2FEAC
:100E5000FFF74AFF70BD70B55648514948604F4989
:100E6000486057484A494860484948604E48C06908
:100E700040F400304C49C8614F48001F006820F41E
:100E800040704D49091F08600846006820F4406022
:100E900008600846006820F4405008600846006872
:100EA00020F4404008600846006840F40070086084
:100EB0000846006840F4006008600846006840F496
:100EC000804008603D48006800EBC00101EB001065
:100ED00040004FF4E121B0FBF1F56420B5FBF0F0E8
:100EE00004012009642101FB1056322101EB061098
:100EF0006421B0FBF1F000F00F0004432C49091D00
:100F00000C80081D008842F22C0108432849083152
:100F1000088027481030008840F0400024491031F4
:100F20000880002022490880262000F0C5F80C2106
:100F30002620FFF72FFEFFF7F5FE70BD70B50246C5
:100F4000124850F82200124C54F82240031B002B88
:100F500001DA03F58073FF2B4ADA0C4C54F82200B7
:100F6000441C0A4E46F82240017042B90F4808302E
:100F7000008840F080000D4C0834208028E021E0FB
:100F800018ED00E000E400E01C0000203C00002020
:100F9000440000207E0400207E0200202C0000205F
:100FA00034000020000002400010024004380140DC
:100FB000044400407E030020040801400400002097
:100FC0007E0500204248008840F08000404C208090
:100FD000404850F82240404800EB022000F5807065
:100FE000844205D13C4800EB02203A4C44F82200F0
:100FF000084670BD0146394850F82100384A52F879
:101000002120904201D100207047344850F821003F
:10101000334A52F82120904207D9304850F8210035
:101020002F4A52F82120801AEEE72D4850F821006F
:101030002A4A52F82120801AC0F58070E4E710B5E2
:1010400001464FF0FF32254850F82100244B53F859
:101050002130984217D0224B53F82100431C204CDA
:1010600044F821300278204650F821301D4800EB2A
:10107000012000F58070834205D11A4800EB012061
:10108000234643F82100104610BD10B50446214602
:101090000120FFF753FF10BD00B50120FFF7CFFF80
:1010A00000BD10B5044603E014F8010BFFF7EDFF97
:1010B00020780028F8D110BD00F01F0201219140D6
:1010C00042094FF0E02303EB8202C2F8001170479F
:1010D0000C4400403C0000207E0400202C00002036
:1010E000340000207E0200202DE9F041022001F0B2
:1010F00015FE00282ED0002500260027A846012036
:1011000001F01FFE002412E0704830F8140005447E
:101110006E49601C31F810000644A01C31F8100024
:101120000744E01C31F810008044201DC4B2102C8C
:10113000EADBC5F38F0066490880C6F38F00654976
:101140000880C7F38F0064490880C8F38F006349A3
:10115000088000BFBDE8F08100B593B04FF4804037
:1011600000F031FF0121084600F0B9FF01214FF4E2
:10117000037000F0C1FF0320ADF8080000208DF8D7
:101180000B0002A9564800F003FD5020ADF80800FE
:1011900000208DF80B0002A9524800F0F9FC5248DB
:1011A00001F0B6FC51480390484804900020059097
:1011B00010200690002007908020089040000990A1
:1011C00080000A9020200B9000020C9000200D90CF
:1011D00003A9454801F03EFD01220221424801F0E9
:1011E00070FD0121404801F060FD00200E900120BB
:1011F0008DF83C008DF83D004FF4602010900020E9
:10120000119004208DF848000EA938484C3801F0A0
:1012100088FA05230122042134484C3801F019FBD7
:1012200005230222062131484C3801F012FB052328
:10123000032208212D484C3801F00BFB0523042222
:1012400009212A484C3801F004FB012127484C3879
:1012500001F09EFA012125484C3801F08EFA23480E
:101260004C3801F0ACFA00BF20484C3801F0ACFA21
:101270000028F9D11D484C3801F0B0FA00BF1B48D6
:101280004C3801F0B0FA0028F9D1012117484C3848
:1012900001F0B3FA0B208DF8040000208DF8050052
:1012A0008DF8060001208DF8070001A801F021F853
:1012B00013B000BD08B51020ADF8000000208DF877
:1012C000030069460A4800F063FC08BD7E06002062
:1012D0004C00002050000020520000204E00002052
:1012E000000C014000080140080002404C2401406D
:1012F0000010014010B54FF4807000F0ECFF10BDFD
:101300001FB50121092000F0F7FE48208DF80F00DD
:1013100003208DF80E004FF48070ADF80C0003A987
:10132000124800F035FC0821012000F045FD4FF483
:101330008070019000208DF8080008208DF80900C9
:1013400001208DF80A0001A800F04EFF17208DF84B
:1013500000000F208DF801008DF8020001208DF8AB
:101360000300684600F0C5FF1FBD0000000C0140EF
:1013700008B50121082000F0BFFE03208DF802000F
:1013800010208DF803008020ADF800006946024867
:1013900000F0FEFB08BD0000000C014070B50446E3
:1013A0000D462046FFF771FE70BD70B5054600BFC3
:1013B000FFF772FE0446601CFAD02046FFF765FE78
:1013C000204670BD10B504462046FFF75EFE10BDF6
:1013D00001464FF0FF30704700BFFEE71549086037
:1013E00000BF144909680029FBD17047014609B1C3
:1013F00011480160104800687047014609B10F4864
:1014000001600E48006870470A48006820B109482A
:101410000068401E074908600848006820B1074876
:101420000068401E0549086003480068401C0249E6
:101430000860704754000020580000205C00002025
:1014400070B5FD48008859214843642190FBF1F4B0
:101450006420B4FBF0F100FB11400A21B0FBF1F570
:101460006420B4FBF0F62B463246F4A1F54801F0B7
:1014700079FC70BDF8B5F4480088592148436421CF
:1014800090FBF1F5B5F5707F01D32C4601E04FF4E8
:101490007074A4F566743C20B4FBF0F4B43464209A
:1014A000B5FBF0F100FB11500A21B0FBF1F664200E
:1014B000B5FBF0F73B462246E4A1E24852380096DD
:1014C00001F050FCF8BD2DE9F041E3480488E34801
:1014D0000088844201D2E1490C80E0480088201A4B
:1014E00044080020FFF782FF401E00FB04F5DC48A3
:1014F00000682844DA4908600A20B4FBF0F100FBD8
:101500001146B4FBF0F733463A46D6A1CD483438FD
:1015100001F028FCBDE8F08110B5D148006848F61C
:10152000A041B0FBF1F42246D0A1C648163801F024
:1015300019FC10BD10B5CF48008800EBC00101EBCD
:1015400000104FF47A7190FBF1F42246CAA1CC4806
:1015500001F008FC10BD10B504462246C9A1C848D8
:101560000C3001F0FFFB10BD704710B5C748B0F953
:1015700000004FF4B47190FBF1F201FB1200C3497B
:1015800008800846B0F9000000EB8000702101EBF4
:101590004004E12094FBF0F044002046E11704EB06
:1015A000D1614911A4EB411404F191035A1EB8A171
:1015B000A448273801F0D6FBB748B0F90020B7A1FE
:1015C000A048243801F0CEFB10BD2DE9FC5F804619
:1015D00089469246404602F0FEF806464FF0333206
:1015E000B04B02F00FF904460022AF4B02F01CF89A
:1015F000CDE9000102F0C0F88046B8F1380F01DDF6
:101600004FF03808B8F1000F01DA4FF000084046FB
:101610004FEAE87108EB51714FEAE10BBBF1070F9C
:1016200066D2DFE80BF004101E2C3A485600C8F1D1
:101630000D00CAEB0A11642202EB41014944904AB1
:101640001E3A505454E0A8F10800C0F10D00CAEB56
:101650000A11822202EB41014944894A1E3A505440
:1016600046E0A8F11000C0F10D00CAEB0A11A0225B
:1016700002EB41014944824A1E3A505438E0A8F135
:101680001800C0F10D00CAEB0A11BE2202EB4101A5
:1016900049447B4A1E3A50542AE0A8F12000C0F188
:1016A0000D00CAEB0A11DC2202EB41014944744AE5
:1016B0001E3A50541CE0A8F12800C0F10D00CAEBFE
:1016C0000A11FA2202EB410149446D4A1E3A505474
:1016D0000EE0A8F13000C0F10D00CAEB0A114FF482
:1016E0008C7202EB41014944654A1E3A505400BFD6
:1016F00000BFBDE8FC9F2DE9F0476C48B0F9000041
:10170000142190FBF1F006B26949B1F90000C1174C
:1017100000EB5171CF10192F00DD192717F1190FA8
:1017200001DA6FF01807282E00DD282616F1280FA1
:1017300001DA6FF02706052097FBF0F007B23A4672
:101740005CA14F480C3001F00DFB32465BA13D48D7
:10175000963801F007FB3A4600213046FFF735FF87
:10176000304602F038F880460022564B02F04AF824
:10177000044602F001F882463A460121FFF725FFB0
:10178000304602F028F8044600224F4B02F03AF8A7
:10179000804601F0F1FF82463A460221FFF715FF2D
:1017A000304602F018F804460022484B02F02AF8AE
:1017B000804601F0E1FF82463A460321FFF705FF2C
:1017C0003A4604210020FFF700FF704202F003F8C0
:1017D000044600223D4B02F015F8804601F0CCFF94
:1017E00082463A460521FFF7F0FE704201F0F3FF12
:1017F00004460022344B02F005F8804601F0BCFF9D
:1018000082463A460621FFF7E0FE704201F0E3FF10
:10181000804600222B4B01F0F5FF044601F0ACFF9F
:1018200082463A460721FFF7D0FE70423A46082129
:10183000FFF7CBFEBDE8F0874C0000202532752E67
:1018400025758E001C0200205000002025632532E3
:10185000752E25758E0000005200002060000020CB
:10186000640000202532752E25758F0025303575D2
:10187000000000004E0000201225337525250000D1
:10188000BC000020763A202575250000720000205B
:101890002563256300000000700000201F253569C6
:1018A000000000003333E33F00003C406E000020A6
:1018B0006C000020B125346900000000B2253469B5
:1018C000000000000000E83F0000E03F0000D03FC3
:1018D00010B505480068642190FBF1F4224603A18D
:1018E000044801F03FFA10BD6800002085253469E6
:1018F000000000001302002010B50120FFF77AFB62
:101900000446062C01DA002010BD0120FCE770B56A
:1019100005460E461446A5F164000A2820D2DFE8E9
:1019200000F005091F1F1F1F1F0A121A2078FFF75A
:1019300012FE16E015E0204601885D4A11804188BC
:101940005C4A11800DE0204641885B4A1180018885
:101950005A4A118005E02046594A0168116000E0AA
:1019600070BD00BF00BFFBE72DE9F04788B0002540
:101970000027A946A8460120FFF73CFB8246BAF1A2
:10198000060F03DA002008B0BDE8F08747E04D48B5
:10199000006880F080004B490860242C02D10DB90A
:1019A00001253CE04D2C03D1012D01D1022536E06B
:1019B0003E2C03D1022D01D1032530E0032D06D1A9
:1019C0000425274688EA040000F0FF0827E0042DDC
:1019D00024D10525A14688EA040000F0FF0800266E
:1019E0000DE000BFFFF758FB0446401CFAD0E0B200
:1019F0000DF8060088EA040000F0FF08761CBE42DD
:101A0000EFDB00BFFFF748FB0446401CFAD06A46F4
:101A100039464846FFF77BFF0120B4E700BFFFF7D8
:101A20003BFB0446401CB2D100BFACE770B5054695
:101A30000E46144600202449087024A0FFF731FB0D
:101A40002846FFF722FB2048007868401E490870AE
:101A50003046FFF71AFB1C48007870401A4908709E
:101A600009E02078FFF711FB14F8010B16490978FB
:101A70004840154908702800A5F10101CDB2F0D108
:101A800011480078FFF701FB70BD10B500226B21F3
:101A90001046FFF7CBFF00226C211046FFF7C6FF70
:101AA00000226D211046FFF7C1FF032010BD00008A
:101AB00070000020720000206C0000206E000020EA
:101AC000680000200C0C014074000020244D3C00F4
:101AD00010B50446CA48844208D10121042000F010
:101AE00025FB0021042000F021FB46E0C54884428C
:101AF00008D10121082000F019FB0021082000F086
:101B000015FB3AE0C048844208D10121102000F0C2
:101B10000DFB0021102000F009FB2EE0BB488442A1
:101B200008D10121202000F001FB0021202000F03D
:101B3000FDFA22E0B648844208D10121402000F09D
:101B4000F5FA0021402000F0F1FA16E0B148844295
:101B500008D10121802000F0E9FA0021802000F066
:101B6000E5FA0AE0AC48844207D10121801500F073
:101B7000DDFA0021A01500F0D9FA10BD10B5012141
:101B8000084600F0D3FA0021012000F0CFFA10BD82
:101B90002DE9F04102460025002600200023002404
:101BA000002791F803C00CF00F0591F803C01CF05A
:101BB000100F03D091F802C04CEA0505B1F800C03F
:101BC0001CF0FF0F31D0146800202BE04FF0010C07
:101BD0000CFA00F3B1F800C00CEA03069E4220D1D3
:101BE00083004FF00F0C0CFA03F7BC4305FA03FC1B
:101BF0004CEA040491F803C0BCF1280F06D14FF061
:101C0000010C0CFA00FCC2F814C00AE091F803C001
:101C1000BCF1480F05D14FF0010C0CFA00FCC2F8E2
:101C200010C0401C0828D1D31460B1F800C0BCF12A
:101C3000FF0F34DD546800202EE000F1080C4FF057
:101C4000010808FA0CF3B1F800C00CEA03069E4242
:101C500021D183004FF00F0C0CFA03F7BC4305FAB7
:101C600003FC4CEA040491F803C0BCF1280F05D131
:101C700000F1080C08FA0CF8C2F8148091F803C0BF
:101C8000BCF1480F07D100F1080C4FF0010808FA29
:101C90000CF8C2F81080401C0828CED35460BDE870
:101CA000F0814FF6FF710180022181700421C17023
:101CB00070470246002093680B4201D0012000E0EB
:101CC000002070470146886880B2704702460020B5
:101CD000D3680B4201D0012000E00020704701468C
:101CE000C86880B2704701617047416170470AB1AE
:101CF000016100E041617047C16070474FF480327C
:101D00000A43826181618261826982697047024609
:101D10000020424B18684FF68073184040EA0210CA
:101D200008433E4B186070473D49C8617047F0B5A5
:101D30000A46002300240021002500F00046B6F1E9
:101D4000004F02D1354EF16901E0344E7168C0F3A5
:101D5000034583B200F44016B6F5401F08D121F0C8
:101D600070612E4E766826F070662C4F7E6012E011
:101D700000F48016B6F5801F06D1032606FA05F496
:101D8000A14341F0706106E0460D360103FA06F604
:101D9000B14341F0706122B1460D360103FA06F6F7
:101DA000314300F00046B6F1004F02D11B4EF16105
:101DB00001E01A4E7160F0BD30B500228B071C0F98
:101DC0000F2303FA04F2154B08338C1053F8243018
:101DD0009343124C08348D1044F8253023468C1060
:101DE00053F824308C07240F00FA04F423430B4CDF
:101DF00008348D1044F8253030BD0A49086070471A
:101E000000080140000C0140001001400014014096
:101E100000180140001C014000200140000001406A
:101E200000002042DC002042DC48006840F0010055
:101E3000DA49086008464068D9490840D7494860EF
:101E400008460068D7490840D44908600846006839
:101E500020F4802008600846406820F4FE004860B6
:101E60004FF41F0088607047CC49096821F4803125
:101E7000CA4A11601146096821F480211160B0F549
:101E8000803F03D0B0F5802F0ED106E0C34909682A
:101E900041F48031C14A116007E0C049096841F44A
:101EA000A021BE4A116000E000BF00BF704710B51E
:101EB00001460022002300204A11012A02D1B74C1A
:101EC000236806E0022A02D1B44C236A01E0B34C35
:101ED000636A01F01F02012494401C4201D00120DA
:101EE00000E0002010BD70B500240025002600BFD2
:101EF0003120FFF7DCFF0646641CB4F5A06F01D06B
:101F0000002EF5D03120FFF7D2FF08B1012500E007
:101F10000025284670BD01460020A04A106820F028
:101F2000F80040EAC100106070479F4908607047A0
:101F300002460020994B586820F47C1042EA0103C5
:101F40001843964B5860704797490866704701469A
:101F50000020924A506820F0030008435060704708
:101F60008E48406800F00C007047014600208B4A04
:101F7000506820F0F0000843506070470146002090
:101F8000864A506820F4E06008435060704701467C
:101F90000020824A506820F4605040EAC10050603E
:101FA000704729B17D4A527A02437C4B5A7206E04F
:101FB0007A4A527AC343DBB21A40784B5A7270475E
:101FC0007A490860704701460020744A506820F43E
:101FD00040400843506070470021754A11706F4AB5
:101FE00082F82010012802D0042808D103E0012142
:101FF0006F4A117004E005216D4A117000E000BFC6
:1020000000BF70476B49086070476449096A014323
:10201000624A11627047674944390860704730B5B9
:1020200000210022002400235C4D6D6805F00C01A6
:1020300021B1042905D0082923D105E05E4D0560B2
:1020400022E05E4D05601FE0544D6D6805F470128E
:10205000524D6D6805F48034022505EB92421CB99F
:10206000574D554305600BE04C4D6D6815F4003F2E
:1020700003D0514D5543056002E0504D5543056076
:1020800002E04D4D056000BF00BF444D6D6805F096
:10209000F00109094B4D6B5C0568DD4045603F4D23
:1020A0006D6805F4E061090A464D6B5C4568DD40EA
:1020B00085603A4D6D6805F46051C90A414D6B5C0D
:1020C0004568DD40C560354D6D6805F44041890BBC
:1020D0003D4D6B5CC568B5FBF3F5056130BD29B1BD
:1020E0002E4A526902432D4B5A6104E02B4A526931
:1020F00082432A4B5A61704729B1284A92690243A8
:10210000264B9A6104E0254A92698243234B9A61E7
:10211000704729B1214AD2690243204BDA6104E0B9
:102120001E4AD26982431D4BDA61704729B11B4AAE
:10213000D2680243194BDA6004E0184AD26882433D
:10214000164BDA60704729B1144A12690243134BE7
:102150001A6104E0114A12698243104B1A617047F8
:1021600014494039086070470F49C86470470B49EB
:10217000C87170470948406A40F08070074948625A
:10218000704701460020054A92680A4201D00120AA
:1021900000E000207047014988727047001002403B
:1021A0000000FFF8FFFFF6FE00004242D800424266
:1021B000201002408004424200127A000024F40001
:1021C00000093D00750000208500002000204449E2
:1021D0000860091D0860091D0860091D0860414864
:1021E0003F4914310860704700213D498279002A37
:1021F0003AD00A46126803689A430B461A600A1DD1
:10220000126803689A430B1D1A60027911440A6828
:1022100003681A430A60324A0832126803689A4314
:102220002F4B08331A601A1D126803689A432C4B0F
:102230000C331A604279102A0ED11A1F12680368F3
:102240001A43274B08331A601A1D126803681A4391
:10225000234B0C331A600DE02149427911440A687E
:1022600003681A430A6005E0027911440A680368AA
:102270009A430A6070470021016001710C2141718D
:102280000021817170471649103109680143144AD1
:1022900010321160704701460020114A1432126852
:1022A0000A4201D0012000E0002070470C4914319F
:1022B00008607047014600200022094B1B6803EAB2
:1022C0000102074B14331B680B4202D00AB10120F4
:1022D00000E0002070470249143108607047000098
:1022E00000040140FFFF0F0031490143314A1160F2
:1022F000704770B5002100230F22C4780CB32D4C19
:10230000246804F4E064C4F5E064210AC1F1040324
:10231000CA40447804FA03F1847814402143090147
:10232000254C0678A155047804F01F050124AC4023
:1023300005786D114FF0E02606EB8505C5F80041E4
:1023400009E0047804F01F050124AC401B4D067819
:10235000761145F8264070BD194A0A400243154BD4
:102360001B1F1A60704739B1124A121D12680243CE
:10237000104B1B1D1A6006E00E4A121D12688243A4
:102380000C4B1B1D1A607047042808D14FF0E02148
:10239000096941F004014FF0E022116107E04FF0BC
:1023A000E021096921F004014FF0E022116170473A
:1023B0000000FA050CED00E000E400E080E100E040
:1023C00080FFFF1F10B50446BF48844208D1012199
:1023D0008014FFF7ABFE0021A014FFF7A7FE16E064
:1023E000BA48844208D101210014FFF7ACFE002155
:1023F0002014FFF7A8FE0AE0B548844207D1012166
:10240000C013FFF7A0FE0021E013FFF79CFE10BDF4
:1024100010B50022028802F441520B884C882343F5
:102420008C882343CC8823430C8923434C89234342
:102430008C892343CC8923431A430280838B4FF238
:10244000FF74234083830B8A038210BD2DE9F04F74
:1024500085B005460C464FF0000902274FF00008F2
:102460004FF0010B0026B246A88B4FF24001084006
:10247000A88302202884B5F81C90A068022801D106
:1024800000BF36E0A08810B94FF0010B01E04FF01B
:10249000020B8E48854200D100E000BF6846FFF77E
:1024A000BEFDDDF800A0E088B0F5007F0AD14FEA5C
:1024B0001A2000EB80004000A168B0FBF1F0401D45
:1024C00086B20BE04FEA4B10BAFBF0F000EB800055
:1024D0004000A168B0FBF1F0401D86B20A20B6FBB7
:1024E000F0F606F00108A6EB0800C0F34F074FEA2C
:1024F0000828022F01DBFF2F02DD02274FF0000822
:10250000E08840EA080038432884A088A18908436D
:10251000618808432188084340F4006040EA0909C3
:10252000A5F81C9005B0BDE8F08F00210180418026
:102530008180C180018141818181C1810721018226
:1025400070470021018041808180C180022181602B
:1025500000218181704721B1028842F0400202804F
:1025600004E002884FF6BF731A400280704721B121
:10257000828B42F48062828304E0828B4FF6FF33C9
:102580001A408283704770B5002400230C11012586
:10259000A540ABB21AB185881D43858004E08588CB
:1025A000DE43B6B23540858070BD10B51AB1838860
:1025B0000B43838004E08388CC43A4B22340838010
:1025C00010BD81817047014688897047A1F57E4220
:1025D000FF3A04D0028842F48072028004E002884C
:1025E0004FF6FF631A400280704721B1828842F0A3
:1025F0000402828004E082884FF6FB731A408280D6
:10260000704702884FF2FF731A40028002880A4323
:1026100002807047018841F480510180704721B1E8
:10262000028842F40052028004E002884DF6FF73F3
:102630001A400280704702460020012901D0108B09
:1026400000E0908A70470146088A7047B1F5804FD4
:1026500004D1028842F48042028004E002884BF6F2
:10266000FF731A40028070470246002013890B4214
:1026700001D0012000E000207047CA43028170476A
:10268000F0B50246002000240023002501F00F07CA
:102690000126BE40B4B20B1101269E40B3B296880B
:1026A00006EA03051689264202D00DB1012000E09A
:1026B0000020F0BD10B5002201F00F040123A3405B
:1026C0009AB2D343038110BD00300140003800406E
:1026D000003C004010B50446F948844208D101216D
:1026E0004015FFF723FD00216015FFF71FFD17E0E0
:1026F000F448844208D101210015FFF717FD00219D
:102700002015FFF713FD0BE0EF48844208D10121AB
:10271000C803FFF70BFD00214FF40040FFF706FD53
:1027200010BD30B50246002000235068E74C204021
:102730000D790C6844EA0524204350609068E44C0D
:102740002040D1E902542C434D7944EA450420430A
:102750009060D06A20F470000C7C641EE4B22343C5
:1027600040EA0350D06230BD002101600171417127
:102770008160C16001210174704721B1826842F01B
:102780000102826003E0826822F0010282607047E9
:1027900021B1826842F48072826003E0826822F490
:1027A00080728260704710B50023CBB21AB14468C2
:1027B0001C43446002E044689C43446010BD81684F
:1027C00041F0080181607047014600208A6812F0DC
:1027D000080F01D0012000E000207047816841F01F
:1027E000040181607047014600208A6812F0040FDE
:1027F00001D0012000E00020704721B1826842F43E
:10280000A002826003E0826822F4A0028260704726
:10281000014600208A6812F4800F01D0012000E0F8
:102820000020704710B50A4600210023416821F4BA
:102830006041531E41EA4331416010BD21B14268FD
:1028400042F40062426003E0426822F400624260A7
:102850007047F0B504460D4600200021092D11DD1A
:10286000E068A5F10A0606EB4607072606FA07F117
:102870008843A5F10A0606EB460603FA06F108436B
:10288000E0600CE0206905EB4507072606FA07F132
:10289000884305EB450603FA06F108432061072A41
:1028A0000FDA606B561E06EB86071F2606FA07F145
:1028B0008843561E06EB860605FA06F10843606358
:1028C00022E00D2A0FDA206BD61F06EB86071F26A3
:1028D00006FA07F18843D61F06EB860605FA06F1CD
:1028E0000843206310E0E06AA2F10D0606EB8607BC
:1028F0001F2606FA07F18843A2F10D0606EB8606AD
:1029000005FA06F10843E062F0BD21B1826842F4A5
:102910008012826003E0826822F480128260704735
:102920000146C86C80B2704765484C3000687047FB
:1029300021B1426842F48062426003E0426822F4BE
:1029400080624260704721B1426842F48052426026
:1029500003E0426822F48052426070470A46002138
:10296000816821F4E04111438160704721B18268A0
:1029700042F40042826003E0826822F400428260F6
:10298000704721B1826842F40212826003E08268DB
:1029900022F4021282607047014600208A6812F415
:1029A000001F01D0012000E000207047F0B5044670
:1029B0001546002000220026092911DDE068A1F15A
:1029C0000A0707EB470C072707FA0CF29043A1F11F
:1029D0000A0707EB470703FA07F21043E0600CE031
:1029E000206901EB410C072707FA0CF2904301EB39
:1029F000410703FA07F210432061A06BC0F30156B0
:102A0000EF1C06F1010CA7EB0C0707EB870C1F2747
:102A100007FA0CF29043EF1C06F1010CA7EB0C0730
:102A200007EB870701FA07F21043A063F0BD10B56A
:102A30000A4600210023816B21F44011531E41EA14
:102A40000351816310BD10B5002303460B441A6087
:102A500010BD02460023134601F128000344186804
:102A600080B270470A46002141681A4B1940114351
:102A7000416070474162826270470A4600214168A6
:102A800021F01F0111434160704740B10C490831EA
:102A9000096841F400010A4A0832116007E0084958
:102AA0000831096821F40001054A083211607047B5
:102AB0000246002013680B420ED001200DE00000FA
:102AC0000024014000280140003C0140FFFEF0FFCF
:102AD000FDF7F1FFFFFD3FFF00207047CA43026092
:102AE000704770B502460020002300240B12556881
:102AF000CEB205EA060415681D4202D00CB10120D1
:102B000000E0002070BD00220A12D343036070472A
:102B100001684FF6FE7211400160002101604160C2
:102B20008160C1608C49884208D18B490839496865
:102B300041F00F01884A083A51608AE08649143111
:102B4000884208D184490839496841F0F001824A35
:102B5000083A51607DE080492831884208D17E4999
:102B60000839496841F470617B4A083A516070E065
:102B700079493C31884208D177490839496841F49C
:102B80007041754A083A516063E073495031884298
:102B900008D171490839496841F470216E4A083AF0
:102BA000516056E06C496431884208D16A4908395D
:102BB000496841F47001684A083A516049E0664941
:102BC0007831884208D164490839496841F0706118
:102BD000614A083A51603CE06049884206D1011FD1
:102BE000096841F00F01021F116032E05B491431A6
:102BF000884208D15949091F096841F0F001574A34
:102C0000121F116025E055492831884208D15349E7
:102C1000091F096841F47061504A121F116018E0E1
:102C20004E493C31884208D14C49091F096841F49A
:102C300070414A4A121F11600BE0484950318842E6
:102C400007D14649091F096841F47021434A121F00
:102C50001160704710B50022026847F6F0739A437E
:102C60000C6A8B6823430C6923434C6923438C69AA
:102C70002343CC6923434C6A23438C6A23431A437E
:102C80000260CB6843600B6883604B68C36010BD13
:102C90000021016041608160C16001614161816129
:102CA000C161016241628162704721B1026842F0F4
:102CB0000102026004E002684FF6FE731A400260EF
:102CC00070471AB103680B43036002E003688B434B
:102CD00003607047416070470146486880B27047A2
:102CE00001460020002211F0805F03D01B4B083BFF
:102CF0001A6802E0184B083B1A680A4201D001200A
:102D000000E00020704710F0805F03D01349091FD6
:102D1000086002E010490839486070470146002009
:102D2000002211F0805F03D00C4B083B1A6802E0D0
:102D3000094B083B1A680A4201D0012000E000203C
:102D4000704710F0805F03D00449091F086002E05B
:102D500001490839486070470800024008040240F1
:102D6000704700000FB41CB5084B06AA7B446946A7
:102D70000090059800F0CBF804460020694600F06A
:102D8000D9F820461CBC5DF814FB0000C50100000A
:102D900070477047704770B5044685690068C10682
:102DA00001D5302600E02026C00708D070BDD4E948
:102DB000012130469047206A00F1010020626D1E1B
:102DC000F5D570BD70B5044685690068C00708D1A7
:102DD00070BDD4E9012120209047206A00F1010054
:102DE00020626D1EF5D570BD09684A0501D540B257
:102DF0007047C905FCD500B2704709684A0501D57E
:102E0000C0B27047C905FCD580B2704770B50546A1
:102E10000C46012A05D02868800600D5EA690023FF
:102E200002E0012305E05B1C934202D2E05C002833
:102E3000F9D1A869E618C01AA861286A184428625E
:102E40002846FFF7A8FF04E0D5E9012114F8010B9B
:102E50009047B442F8D32846FFF7B4FF70BD000096
:102E60002DE9F0410746002510687529394616A45A
:102E700011D0FFF7B9FF002803DAC0F1000013A456
:102E800007E039688A0701D511A402E0490704D593
:102E900010A4012501E0FFF7B0FF00210A2307F18C
:102EA000240607E0B0FBF3F203FB1200303070544D
:102EB0001046491C0028F5D12B4622463846BDE86D
:102EC000F04100F06CBA0000000000002D0000008E
:102ED0002B0000002000000011680268006A530502
:102EE00001D508700BE0D30501D5088007E0130673
:102EF00003D5C217C1E9000201E0520608600120B3
:102F00007047000001694A1C02610878704700B5EB
:102F10008FB0CDE901310021059105497944CDE912
:102F200003101146684600F02FF90FB000BD0000F5
:102F3000E5FFFFFF0A6802F8010B0A607047000016
:102F40002DE9FF5F04468A461546DFF8AC80F84459
:102F50000027D8E900103E46CDE9001011E03AF80C
:102F600016106A4602A800F0A2FA411C07D0216898
:102F7000890603D5E269391891420ED8074406F153
:102F800001062068800602D5E069B84205DDAE4240
:102F9000E5DB3AF816000028E1D1A069C01BA0616A
:102FA0002046FFF7F8FED8E90010CDE90010002018
:102FB00016E03AF818106A4602A800F078FA81463E
:102FC000401C0BD000250DF1080B05E0D4E90121D0
:102FD0001BF8050090476D1C4D45F7D308F1010023
:102FE000B0428046E5DB206A384420622046FFF785
:102FF000E9FEBDE8FF9F0000920C00002DE9F041C2
:103000008046D21D22F007020026D2E90002F529EF
:1030100014A512D0002A06DA0023D0EB030063EBDC
:10302000020211A508E0D8F800108B0701D50FA502
:1030300002E0490701D50EA501261146002408F13A
:10304000240704E000F066F930323A55641C50EA77
:103050000102F7D133462A4621464046BDE8F041F9
:1030600000F09DB9000000002D0000002B000000C2
:103070002000000030B4002100F124040CE002F034
:10308000070505F130054FEAD20242EA4372655462
:1030900001F101014FEAD30352EA0305EFD10468BD
:1030A000002310A2250708D504F020040C4304D007
:1030B000C46901230CA2641EC46130BC00F06FB966
:1030C00010B5044621461068FFF797FE02462046D9
:1030D000BDE810400023CDE7D21D22F00701D1E961
:1030E0000023C7E70000000030000000F0B40F46E6
:1030F0000168090502D5234C7C4402E0214C7C4444
:103100000E34002100F124050BE002F00F064FEA17
:103110001212A65D42EA03724FEA13136E5401F1D4
:10312000010152EA0306F0D1224604680023240775
:1031300004D5702F05D009B111320223F0BC00F084
:103140002EB910320123F9E770B504460D46214629
:103150001068FFF752FE024629462046BDE870403F
:103160000023C3E7D21D22F00703D3E90023BDE704
:103170000368126843F0200303600823C36100233F
:10318000B4E70000F00A00002DE9F05F044689462C
:103190004FF0000ADFF878B1FB44C0F820A02046C9
:1031A000E1688847002875D0252806D0D4E9012198
:1031B0009047206A401C2062F1E700265F462046C7
:1031C000E16888472028054608DB312D06D207EB49
:1031D000050010F8200C08B10643F0E7B00701D550
:1031E00026F00406C4F81CA00027C4F818A02A2D55
:1031F00009D0284600F0FAF938B304EB8708303DCF
:10320000C8F8185019E059F8041B204604EB87024F
:103210009161E1688847012F054618D1E0690028CF
:1032200020DA26F020061DE0D8F8180000EB800018
:1032300005EB40003038C8F818002046E1688847A0
:10324000054600F0D3F90028EED1012F0AD02E2D2B
:1032500008D12046E16888477F1C0546022F46F0CA
:103260002006C4DBA069002803DA404246F00106CC
:10327000A061F00701D026F010066C2D0BD0682D50
:1032800009D04C2D39D06A2D35D0742D35D07A2DFA
:1032900033D016E038E0E1682F4620468847B84230
:1032A000054609D16C2F26D04FF48060E1680643B3
:1032B00020468847054604E06C2F1AD04FF48070F2
:1032C00006430DB3A5F14100192802D8203546F474
:1032D00000664A462946204626604E46FCF740FFD7
:1032E00080B101280BD0F61D26F0070000F1080977
:1032F00055E74020E4E78020D8E70020D6E706F134
:1033000004094CE7284651E7206ABDE8F09F000019
:10331000780A000030B5B0F10A024FEA900E71F160
:1033200000034EEA817EB0EB0E0061EB91014FEAA3
:10333000101E4EEA017E10EB0E0041EB11114FEA18
:10334000102E4EEA016E10EB0E0041EB11214FEAF8
:10335000104E4EEA014E10EB0E0041EB11414018A9
:1033600041F100014FEAD00040EA41704FEAD1013B
:1033700010EB80054FEA810444EA907444EB0104A9
:103380006D1944EB0404521BA3414FF0000348BFE6
:103390000A3200D530BD401C41F1000130BD2DE99D
:1033A000F0470D4604469246994600F1240801680C
:1033B000880604D5E06921F01001216000E00120B9
:1033C000A84202DDA0EB050700E00027A16907EB9A
:1033D000050202EB0900A1EB0000A0612068C00615
:1033E00002D42046FFF7D7FC002608E0D4E90121EB
:1033F0001AF806009047206A401C761C20624E4551
:10340000F4DB2068C0060AD52046FFF7C4FC06E0BE
:10341000D4E9012130209047206A401C2062381EE8
:10342000A7F10107F4DC07E0D4E9012118F8050051
:103430009047206A401C2062281EA5F10105F3DC9C
:103440002046FFF7BFFC2068000602D50220BDE839
:10345000F0870120FBE710B5436913B1AFF300809B
:1034600001E0FFF7D3FC012010BD126800F1240138
:103470000A7000224A700122EDE711684FF0FF3216
:10348000E9E710B5436913B1AFF3008001E0FFF73E
:1034900057FD012010BD126800F124018284002232
:1034A000C2840122EDE711684FF0FF32E9E770B501
:1034B00005460C46164600F03FF8036893F80101F4
:1034C000012806D0FF2C0FD8185D68B101202C70A0
:1034D00070BDD3F807013246214603442846BDE8B3
:1034E000704003F2071318474FF0FF3070BD754668
:1034F00000F030F8AE4605006946534620F007005C
:10350000854618B020B5FCF79FFEBDE820404FF07F
:1035100000064FF000074FF000084FF0000B21F0BD
:103520000701AC46ACE8C009ACE8C009ACE8C0098A
:10353000ACE8C0098D46704710B500F00FF8001DCB
:1035400010BD00BFB90000000446AFF30080204664
:10355000FCF766FE00487047A00600200048704750
:10356000C006002000487047A40600204FF0013C30
:1035700050F8042B51F8043B9A4221D1A2EB0C03E2
:10358000934313EACC1317D150F8042B51F8043BA2
:103590009A4215D1A2EB0C03934313EACC130BD13F
:1035A00050F8042B51F8043B9A4209D1A2EB0C03CA
:1035B000934313EACC13DBD04FF00000704700BFF9
:1035C000D01A01BAB1FA81F101F0180122FA01F022
:1035D000CB40C1F12001DBB2C0B2C01A2CFA01F31A
:1035E000D11A914311EAC311E6D1704730380A2845
:1035F00001D20120704700207047000010B500295B
:103600000AD00878002807D005487844FFF7AEFFB5
:10361000002801D0002010BD0248784410BD0000F1
:103620003E0600003606000010B591EA030F48BFC1
:1036300083F0004300F1EC81841A71EB030C05D296
:10364000121943EB0C03001B61EB0C01DFF824E1C2
:103650004FEA1154A4EB135C1EEA430F18BF9EEA15
:10366000445F73D023EA0E03DCF1200E21EA0451FB
:1036700043F4801332D322FA0CFE10EB0E0023FA2F
:103680000CFE41EB0E01CCF1200E03FA0EFE10EB06
:103690000E0051F10001B1F5801FCCF1200E32D2A5
:1036A00001EB045112FA0EF2BDE8104058BF70470A
:1036B000401C38BF5FEA420218BF7047002814BFA1
:1036C00020F0010041F100014FEA410313F5001F12
:1036D00038BF7047A1F1C04100F08CB9012A43EB1B
:1036E0000302ACF1200CDCF11F0E32BF4FF0000ED4
:1036F00023FA0CF310EB030041EB0451B4EB115F20
:10370000D0D0A1EB045101F5801149085FEA3000E7
:1037100001EB04510ED350F1000038BF12FA0EFE37
:1037200008D1BDE81040C9E7401C38BF5FEA42023B
:10373000CAD1C3E7BDE810404FEA410313F5001FAB
:1037400038BF7047A1F1C04100F054B99EEA445F10
:1037500008D011EA5E0FBDE8104004BF01F000413F
:1037600000207047BDE8104070B500F0F5F800BFCC
:1037700064FBBE3E0000E0FF4FEA41034FEA5353B3
:10378000A3F58063D3F11E03C8BFD3F1210C0CDD78
:103790004FF0004242EAC12242EA505232FA03FCA0
:1037A0008CEAE17CACEBE1707047102BC4BF0020C9
:1037B000704703F5787CBCF1FF3F04D06FF0004206
:1037C00082EA2100704770B500F0C6F84992248063
:1037D00000207047F2E710F0004248BF4042B0FAC4
:1037E00080F310FA03F10AD0C3F11D0303F58063DF
:1037F0004FEA415002EB035202EBD12170474FF0E8
:1038000000007047DFF848C170B51CEA111E1EBFEA
:103810001CEA13159EEA0C0F95EA0C0F00F06F805E
:1038200081EA030423EA4C134EEAD47E21EA4C11C8
:1038300041F4801143F48013AE44A1FB024CA0FB81
:103840000365AEF17F7E361955EB0C05A1FB034CE9
:103850004CF10003A0FB021C16EB0C06654153F172
:103860000003094218BF46F0010613F4007F0BD194
:103870004FEA03314FEA0530340341EA155140EA7B
:1038800016506FF003020AE04FEAC3214FEAC52049
:10389000F40241EA555140EA56506FF0020202EB41
:1038A0002E4201EB025585EACE710AD05FEA440C44
:1038B00018BF24F0004450F1000041F1000120EA5B
:1038C000D47040F2FE7C624500D270BDA84214BFA5
:1038D0004FF080444FF04044002E08BF0024BEF15A
:1038E000806FA8BFA1F1C041BDE8704080F2828026
:1038F0004FF0000001F1C04101F0004170479EEA25
:103900000C0F0CEA131518BF95EA0C0F06D04FF0F8
:10391000000081EA030E0EF0004170BD00F01CF8BB
:103920008900013E00F007B800F009B84FEA430CE7
:103930005FEA5C5C08D081EA030100F05BB84FEA03
:10394000410C5FEA5C5CF6D14FF000000149704722
:103950000000FF070000F87F0EF1020E2EF0030EAC
:103960005EF8046B364205D4012A43EB030515F5D6
:10397000001F12D8012841EB010C1CF5001F0CD8C8
:103980000ED14FEAD17C15F5001F0CEB4C0C0CF15D
:10399000020C08BF4CEBD37C04E04FF0080C01E0B4
:1039A0004FEAD37C0CEB4C0526FA05F606F0070629
:1039B000B6F1040C06D20EEB860CBDE870404CF05C
:1039C000010C6047DFE80CF0090B02024FF00041E8
:1039D0004FF00000A1F5002170BD194610460128E6
:1039E00051EB010418BFD4F5001484BF002001F08E
:1039F000004170BD0808A0F500114FEA3101704781
:103A000010B591EA030F48BF83F000433FF514AEB1
:103A1000841A71EB030C07D212198CF0004C43EBA3
:103A20000C03001B61EB0C01DFF8A4E14FEA115419
:103A3000A4EB135C1EEA430F18BF9EEA445F00F03C
:103A4000B08023EA6E03524221EA0451C3EB6E03B5
:103A500038BF5B1EDCF1200E25D322FA0CFE10EBE2
:103A60000E0043FA0CFE41EB0E01CCF1200E03FADE
:103A70000EFE10EB0E0051F10001CCF1200E29D406
:103A800012FA0EF201EB0451BDE8104058BF704726
:103A9000401C1CBFB2F1004F704700280CBF491CEE
:103AA00020F00100704712EB020E43EB030218BF37
:103AB0004FF0010E4EEA4202ACF1200CDCF11E0E7A
:103AC00054D943FA0CFE10EB0E0051F1FF31CCF14A
:103AD0001E0ED5D50EF1010E12FA0EFE404141EB3D
:103AE000010101EB445C5FEA5C5C10D910EBDE7015
:103AF00001EB045138BFBEF1004FBDE8104018BFC4
:103B0000704700280CBF491C20F00100704730D2DC
:103B10004FEAD42C11F5001124F400641BD0B1FA43
:103B200081F20B3AA41AA41ED2F12003914030FA7C
:103B300003F31943904001EBCC71002C01EB0451CD
:103B4000BDE81040A8BF704701F1C0414FF0000030
:103B500001F000417047B0FA80F310FA03F100D190
:103B600010BDE41A173C4805C90AE4E701EB04510B
:103B700010BD491001EB0451BDE810404FEA300080
:103B800002E04FF0000170474A0008BF0042F8D041
:103B9000B2F5001F28BF704701F000414FF0000050
:103BA00070479EEA445F07D011EA5E0FBDE81040FF
:103BB00004BF002100207047BDE8104070B5FFF73A
:103BC000CBFE00BF40DFF63E83F000411046704759
:103BD0000000E0FF10B5FFF7C5FC4FF000010160E9
:103BE00010BD000000000000000000003031323342
:103BF0003435363738394142434445464030580021
:103C00003031323334353637383961626364656652
:103C100040307800040000080000000000000002AE
:103C20000001000010000000583D000800000020C6
:103C30008C00000028010008E43D00088C000020F2
:103C4000740C000044010008100100004300000053
:103C5000F8FFFFFF004040404040404040404141AD
:103C60004141414040404040404040404040404051
:103C700040404040400502020202020202020202EB
:103C800002020202022020202020202020202002E8
:103C90000202020202029090909090901010101078
:103CA0001010101010101010101010101010101014
:103CB00002020202020288888888888808080808A8
:103CC0000808080808080808080808080808080874
:103CD000020202024000000000000000000000009C
:103CE00000000000000000000000000000000000D4
:103CF00000000000000000000000000000000000C4
:103D000000000000000000000000000000000000B3
:103D100000000000000000000000000000000000A3
:103D20000000000000000000000000000000000093
:103D30000000000000000000000000000000000083
:103D40000000000000000000000000000000000073
:103D500000000000000000000000000000512502EB
:103D6000000000000000000001020304060708092B
:103D700000000000003801405800024000440040AC
:103D80006C00024000000000000000000000000085
:103D90000000000000000000000000000000000023
:103DA0000000000000000000000000000000000013
:103DB0000000000000000000FFFF00000000000005
:103DC00000000000000000000000000000000000F3
:103DD00000010203040102030406070809020406A5
:043DE00008000000D7
:040000050800022DC0
:00000001FF
